{
  "address": "0xe7f1725E7734CE288F8367e1Bb143E90bb3F0512",
  "abi": [
    {
      "inputs": [
        {
          "internalType": "address",
          "name": "_AggregatorV3Interface_Address",
          "type": "address"
        }
      ],
      "stateMutability": "nonpayable",
      "type": "constructor"
    },
    {
      "inputs": [],
      "name": "FundMe__NotOwner",
      "type": "error"
    },
    {
      "stateMutability": "payable",
      "type": "fallback"
    },
    {
      "inputs": [],
      "name": "MINIMUM_USD",
      "outputs": [
        {
          "internalType": "uint256",
          "name": "",
          "type": "uint256"
        }
      ],
      "stateMutability": "view",
      "type": "function"
    },
    {
      "inputs": [
        {
          "internalType": "address",
          "name": "",
          "type": "address"
        }
      ],
      "name": "addressToAmountFunded",
      "outputs": [
        {
          "internalType": "uint256",
          "name": "",
          "type": "uint256"
        }
      ],
      "stateMutability": "view",
      "type": "function"
    },
    {
      "inputs": [],
      "name": "fund",
      "outputs": [],
      "stateMutability": "payable",
      "type": "function"
    },
    {
      "inputs": [
        {
          "internalType": "uint256",
          "name": "",
          "type": "uint256"
        }
      ],
      "name": "funders",
      "outputs": [
        {
          "internalType": "address",
          "name": "",
          "type": "address"
        }
      ],
      "stateMutability": "view",
      "type": "function"
    },
    {
      "inputs": [],
      "name": "getVersion",
      "outputs": [
        {
          "internalType": "uint256",
          "name": "",
          "type": "uint256"
        }
      ],
      "stateMutability": "view",
      "type": "function"
    },
    {
      "inputs": [],
      "name": "i_owner",
      "outputs": [
        {
          "internalType": "address",
          "name": "",
          "type": "address"
        }
      ],
      "stateMutability": "view",
      "type": "function"
    },
    {
      "inputs": [],
      "name": "priceFeed",
      "outputs": [
        {
          "internalType": "contract AggregatorV3Interface",
          "name": "",
          "type": "address"
        }
      ],
      "stateMutability": "view",
      "type": "function"
    },
    {
      "inputs": [],
      "name": "withdraw",
      "outputs": [],
      "stateMutability": "nonpayable",
      "type": "function"
    },
    {
      "stateMutability": "payable",
      "type": "receive"
    }
  ],
  "transactionHash": "0x737d273ead93e2a28922d6d9810964d57af7f0ea05ebd452aa7e3a11f50b2715",
  "args": [
    "0x5FbDB2315678afecb367f032d93F642f64180aa3"
  ],
  "numDeployments": 1,
  "solcInputHash": "6113ec2f1a77f236c1a4ae570d231217",
  "bytecode": "0x60a060405234801561001057600080fd5b50604051610fb8380380610fb883398181016040528101906100329190610113565b3373ffffffffffffffffffffffffffffffffffffffff1660808173ffffffffffffffffffffffffffffffffffffffff1660601b8152505080600260006101000a81548173ffffffffffffffffffffffffffffffffffffffff021916908373ffffffffffffffffffffffffffffffffffffffff16021790555050610140565b600080fd5b600073ffffffffffffffffffffffffffffffffffffffff82169050919050565b60006100e0826100b5565b9050919050565b6100f0816100d5565b81146100fb57600080fd5b50565b60008151905061010d816100e7565b92915050565b600060208284031215610129576101286100b0565b5b6000610137848285016100fe565b91505092915050565b60805160601c610e53610165600039600081816103c201526105ed0152610e536000f3fe60806040526004361061007f5760003560e01c8063741bef1a1161004e578063741bef1a14610142578063b60d42881461016d578063dba6335f14610177578063dc0d3dff146101a25761008e565b80630d8e6e2c146100985780633ccfd60b146100c35780633e47d6f3146100da5780636b69a592146101175761008e565b3661008e5761008c6101df565b005b6100966101df565b005b3480156100a457600080fd5b506100ad610319565b6040516100ba9190610743565b60405180910390f35b3480156100cf57600080fd5b506100d86103c0565b005b3480156100e657600080fd5b5061010160048036038101906100fc91906107c1565b6105a0565b60405161010e9190610743565b60405180910390f35b34801561012357600080fd5b5061012c6105b8565b6040516101399190610743565b60405180910390f35b34801561014e57600080fd5b506101576105c5565b604051610164919061084d565b60405180910390f35b6101756101df565b005b34801561018357600080fd5b5061018c6105eb565b6040516101999190610877565b60405180910390f35b3480156101ae57600080fd5b506101c960048036038101906101c491906108be565b61060f565b6040516101d69190610877565b60405180910390f35b6802b5e3af16b188000061021e600260009054906101000a900473ffffffffffffffffffffffffffffffffffffffff163461064e90919063ffffffff16565b101561025f576040517f08c379a000000000000000000000000000000000000000000000000000000000815260040161025690610948565b60405180910390fd5b346000803373ffffffffffffffffffffffffffffffffffffffff1673ffffffffffffffffffffffffffffffffffffffff16815260200190815260200160002060008282546102ad9190610997565b925050819055506001339080600181540180825580915050600190039060005260206000200160009091909190916101000a81548173ffffffffffffffffffffffffffffffffffffffff021916908373ffffffffffffffffffffffffffffffffffffffff160217905550565b6000600260009054906101000a900473ffffffffffffffffffffffffffffffffffffffff1673ffffffffffffffffffffffffffffffffffffffff166354fd4d506040518163ffffffff1660e01b815260040160206040518083038186803b15801561038357600080fd5b505afa158015610397573d6000803e3d6000fd5b505050506040513d601f19601f820116820180604052508101906103bb9190610a02565b905090565b7f000000000000000000000000000000000000000000000000000000000000000073ffffffffffffffffffffffffffffffffffffffff163373ffffffffffffffffffffffffffffffffffffffff1614610445576040517f579610db00000000000000000000000000000000000000000000000000000000815260040160405180910390fd5b60005b6001805490508110156104f05760006001828154811061046b5761046a610a2f565b5b9060005260206000200160009054906101000a900473ffffffffffffffffffffffffffffffffffffffff16905060008060008373ffffffffffffffffffffffffffffffffffffffff1673ffffffffffffffffffffffffffffffffffffffff168152602001908152602001600020819055505080806104e890610a5e565b915050610448565b5060003373ffffffffffffffffffffffffffffffffffffffff164760405161051790610ad8565b60006040518083038185875af1925050503d8060008114610554576040519150601f19603f3d011682016040523d82523d6000602084013e610559565b606091505b505090508061059d576040517f08c379a000000000000000000000000000000000000000000000000000000000815260040161059490610b39565b60405180910390fd5b50565b60006020528060005260406000206000915090505481565b6802b5e3af16b188000081565b600260009054906101000a900473ffffffffffffffffffffffffffffffffffffffff1681565b7f000000000000000000000000000000000000000000000000000000000000000081565b6001818154811061061f57600080fd5b906000526020600020016000915054906101000a900473ffffffffffffffffffffffffffffffffffffffff1681565b60008061065a8361068a565b90506000670de0b6b3a764000085836106739190610b59565b61067d9190610be2565b9050809250505092915050565b6000808273ffffffffffffffffffffffffffffffffffffffff1663feaf968c6040518163ffffffff1660e01b815260040160a06040518083038186803b1580156106d357600080fd5b505afa1580156106e7573d6000803e3d6000fd5b505050506040513d601f19601f8201168201806040525081019061070b9190610c8b565b5050509150506402540be400816107229190610d06565b915050919050565b6000819050919050565b61073d8161072a565b82525050565b60006020820190506107586000830184610734565b92915050565b600080fd5b600073ffffffffffffffffffffffffffffffffffffffff82169050919050565b600061078e82610763565b9050919050565b61079e81610783565b81146107a957600080fd5b50565b6000813590506107bb81610795565b92915050565b6000602082840312156107d7576107d661075e565b5b60006107e5848285016107ac565b91505092915050565b6000819050919050565b600061081361080e61080984610763565b6107ee565b610763565b9050919050565b6000610825826107f8565b9050919050565b60006108378261081a565b9050919050565b6108478161082c565b82525050565b6000602082019050610862600083018461083e565b92915050565b61087181610783565b82525050565b600060208201905061088c6000830184610868565b92915050565b61089b8161072a565b81146108a657600080fd5b50565b6000813590506108b881610892565b92915050565b6000602082840312156108d4576108d361075e565b5b60006108e2848285016108a9565b91505092915050565b600082825260208201905092915050565b7f596f75206e65656420746f207370656e64206d6f726520455448210000000000600082015250565b6000610932601b836108eb565b915061093d826108fc565b602082019050919050565b6000602082019050818103600083015261096181610925565b9050919050565b7f4e487b7100000000000000000000000000000000000000000000000000000000600052601160045260246000fd5b60006109a28261072a565b91506109ad8361072a565b9250827fffffffffffffffffffffffffffffffffffffffffffffffffffffffffffffffff038211156109e2576109e1610968565b5b828201905092915050565b6000815190506109fc81610892565b92915050565b600060208284031215610a1857610a1761075e565b5b6000610a26848285016109ed565b91505092915050565b7f4e487b7100000000000000000000000000000000000000000000000000000000600052603260045260246000fd5b6000610a698261072a565b91507fffffffffffffffffffffffffffffffffffffffffffffffffffffffffffffffff821415610a9c57610a9b610968565b5b600182019050919050565b600081905092915050565b50565b6000610ac2600083610aa7565b9150610acd82610ab2565b600082019050919050565b6000610ae382610ab5565b9150819050919050565b7f43616c6c206661696c6564000000000000000000000000000000000000000000600082015250565b6000610b23600b836108eb565b9150610b2e82610aed565b602082019050919050565b60006020820190508181036000830152610b5281610b16565b9050919050565b6000610b648261072a565b9150610b6f8361072a565b9250817fffffffffffffffffffffffffffffffffffffffffffffffffffffffffffffffff0483118215151615610ba857610ba7610968565b5b828202905092915050565b7f4e487b7100000000000000000000000000000000000000000000000000000000600052601260045260246000fd5b6000610bed8261072a565b9150610bf88361072a565b925082610c0857610c07610bb3565b5b828204905092915050565b600069ffffffffffffffffffff82169050919050565b610c3281610c13565b8114610c3d57600080fd5b50565b600081519050610c4f81610c29565b92915050565b6000819050919050565b610c6881610c55565b8114610c7357600080fd5b50565b600081519050610c8581610c5f565b92915050565b600080600080600060a08688031215610ca757610ca661075e565b5b6000610cb588828901610c40565b9550506020610cc688828901610c76565b9450506040610cd7888289016109ed565b9350506060610ce8888289016109ed565b9250506080610cf988828901610c40565b9150509295509295909350565b6000610d1182610c55565b9150610d1c83610c55565b9250827f7fffffffffffffffffffffffffffffffffffffffffffffffffffffffffffffff0482116000841360008413161615610d5b57610d5a610968565b5b817f80000000000000000000000000000000000000000000000000000000000000000583126000841260008413161615610d9857610d97610968565b5b827f80000000000000000000000000000000000000000000000000000000000000000582126000841360008412161615610dd557610dd4610968565b5b827f7fffffffffffffffffffffffffffffffffffffffffffffffffffffffffffffff0582126000841260008412161615610e1257610e11610968565b5b82820290509291505056fea26469706673582212207f9dab9486468e6abfacdad6642254929fe2b23904dc8918c73c28e2ce2f08b364736f6c63430008080033",
  "devdoc": {
    "author": "SiegfriedBz",
    "details": "This implements PriceFeed as our library",
    "kind": "dev",
    "methods": {
      "fund()": {
        "details": "This implements PriceFeed as our library"
      }
    },
    "title": "FundMe A contract for crowd funding",
    "version": 1
  },
  "userdoc": {
    "kind": "user",
    "methods": {
      "fund()": {
        "notice": "This function funds this contract"
      }
    },
    "notice": "This contract is to demo a sample funding contract",
    "version": 1
  },
  "storageLayout": {
    "storage": [
      {
        "astId": 59,
        "contract": "contracts/FundMe.sol:FundMe",
        "label": "addressToAmountFunded",
        "offset": 0,
        "slot": "0",
        "type": "t_mapping(t_address,t_uint256)"
      },
      {
        "astId": 62,
        "contract": "contracts/FundMe.sol:FundMe",
        "label": "funders",
        "offset": 0,
        "slot": "1",
        "type": "t_array(t_address)dyn_storage"
      },
      {
        "astId": 74,
        "contract": "contracts/FundMe.sol:FundMe",
        "label": "priceFeed",
        "offset": 0,
        "slot": "2",
        "type": "t_contract(AggregatorV3Interface)45"
      }
    ],
    "types": {
      "t_address": {
        "encoding": "inplace",
        "label": "address",
        "numberOfBytes": "20"
      },
      "t_array(t_address)dyn_storage": {
        "base": "t_address",
        "encoding": "dynamic_array",
        "label": "address[]",
        "numberOfBytes": "32"
      },
      "t_contract(AggregatorV3Interface)45": {
        "encoding": "inplace",
        "label": "contract AggregatorV3Interface",
        "numberOfBytes": "20"
      },
      "t_mapping(t_address,t_uint256)": {
        "encoding": "mapping",
        "key": "t_address",
        "label": "mapping(address => uint256)",
        "numberOfBytes": "32",
        "value": "t_uint256"
      },
      "t_uint256": {
        "encoding": "inplace",
        "label": "uint256",
        "numberOfBytes": "32"
      }
    }
  }
}